{"abi":[{"type":"function","name":"payOutWinnings","inputs":[{"name":"user","type":"address","internalType":"address"},{"name":"amount","type":"uint256","internalType":"uint256"}],"outputs":[],"stateMutability":"nonpayable"},{"type":"function","name":"transferToHouse","inputs":[],"outputs":[],"stateMutability":"nonpayable"}],"bytecode":{"object":"0x608060405234801561001057600080fd5b50610176806100206000396000f3fe608060405234801561001057600080fd5b50600436106100365760003560e01c80630e77d47f1461003b5780632a675f2314610045575b600080fd5b610043610061565b005b61005f600480360381019061005a9190610100565b610063565b005b565b5050565b600080fd5b600073ffffffffffffffffffffffffffffffffffffffff82169050919050565b60006100978261006c565b9050919050565b6100a78161008c565b81146100b257600080fd5b50565b6000813590506100c48161009e565b92915050565b6000819050919050565b6100dd816100ca565b81146100e857600080fd5b50565b6000813590506100fa816100d4565b92915050565b6000806040838503121561011757610116610067565b5b6000610125858286016100b5565b9250506020610136858286016100eb565b915050925092905056fea26469706673582212200b840b3b6c7358abf7007fa298e4ef8ff7a3cb41435a6e1743aa5ab28923d60764736f6c63430008180033","linkReferences":{}},"methodIdentifiers":{"payOutWinnings(address,uint256)":"2a675f23","transferToHouse()":"0e77d47f"},"id":1}