{"abi":[{"type":"function","name":"payOutWinnings","inputs":[{"name":"user","type":"address","internalType":"address"},{"name":"amount","type":"uint256","internalType":"uint256"}],"outputs":[],"stateMutability":"nonpayable"},{"type":"function","name":"transferToHouse","inputs":[],"outputs":[],"stateMutability":"nonpayable"}],"bytecode":{"object":"0x6080604052348015600f57600080fd5b5060b48061001e6000396000f3fe6080604052348015600f57600080fd5b506004361060325760003560e01c80630e77d47f1460375780632a675f23146039575b600080fd5b005b603760443660046048565b5050565b60008060408385031215605a57600080fd5b82356001600160a01b0381168114607057600080fd5b94602093909301359350505056fea2646970667358221220ae893821a42b773cd5ee371e4226e501bf7cbf9934a4424e2b541e16d41fa8b664736f6c63430008180033","linkReferences":{}},"methodIdentifiers":{"payOutWinnings(address,uint256)":"2a675f23","transferToHouse()":"0e77d47f"},"id":1}