{"abi":[{"type":"constructor","inputs":[],"stateMutability":"nonpayable"},{"type":"function","name":"getA","inputs":[],"outputs":[{"name":"","type":"uint256","internalType":"uint256"}],"stateMutability":"view"},{"type":"function","name":"getB","inputs":[],"outputs":[{"name":"","type":"uint256","internalType":"uint256"}],"stateMutability":"view"},{"type":"function","name":"placeBets","inputs":[{"name":"amount","type":"uint256","internalType":"uint256"}],"outputs":[],"stateMutability":"nonpayable"},{"type":"function","name":"placeBetsJag","inputs":[{"name":"amount","type":"uint256","internalType":"uint256"}],"outputs":[],"stateMutability":"nonpayable"},{"type":"function","name":"viewVolume","inputs":[],"outputs":[{"name":"","type":"uint256","internalType":"uint256"},{"name":"","type":"uint256","internalType":"uint256"}],"stateMutability":"view"}],"bytecode":{"object":"0x608060405234801561001057600080fd5b50606460008190556001556101ea8061002a6000396000f3fe608060405234801561001057600080fd5b50600436106100575760003560e01c806319e6f4af1461005c5780635842ec831461007c578063a1c5191514610091578063afab107e146100a3578063d46300fd146100b6575b600080fd5b600054600154604080519283526020830191909152015b60405180910390f35b61008f61008a366004610132565b6100be565b005b6001545b604051908152602001610073565b61008f6100b1366004610132565b610101565b600054610095565b600081116100e75760405162461bcd60e51b81526004016100de9061014b565b60405180910390fd5b80600160008282546100f9919061018d565b909155505050565b600081116101215760405162461bcd60e51b81526004016100de9061014b565b806000808282546100f9919061018d565b60006020828403121561014457600080fd5b5035919050565b60208082526022908201527f5175616e746964616465206465766520736572206d61696f7220717565207a65604082015261726f60f01b606082015260800190565b808201808211156101ae57634e487b7160e01b600052601160045260246000fd5b9291505056fea26469706673582212205232c59191711d097d882e4064e5703827db13a1965e77c02f7d1f41980203e564736f6c63430008180033","linkReferences":{}},"methodIdentifiers":{"getA()":"d46300fd","getB()":"a1c51915","placeBets(uint256)":"afab107e","placeBetsJag(uint256)":"5842ec83","viewVolume()":"19e6f4af"},"id":0}