{"abi":[{"type":"constructor","inputs":[],"stateMutability":"nonpayable"},{"type":"function","name":"lastCompletedMigration","inputs":[],"outputs":[{"name":"","type":"uint256","internalType":"uint256"}],"stateMutability":"view"},{"type":"function","name":"owner","inputs":[],"outputs":[{"name":"","type":"address","internalType":"address"}],"stateMutability":"view"},{"type":"function","name":"setCompleted","inputs":[{"name":"completed","type":"uint256","internalType":"uint256"}],"outputs":[],"stateMutability":"nonpayable"},{"type":"function","name":"upgrade","inputs":[{"name":"newAddress","type":"address","internalType":"address"}],"outputs":[],"stateMutability":"nonpayable"}],"bytecode":{"object":"0x60a060405234801561001057600080fd5b503360805260805161029861003c60003960008181606b0152818160df01526101b601526102986000f3fe608060405234801561001057600080fd5b506004361061004c5760003560e01c80630900f010146100515780638da5cb5b14610066578063fbdbad3c146100aa578063fdacd576146100c1575b600080fd5b61006461005f366004610219565b6100d4565b005b61008d7f000000000000000000000000000000000000000000000000000000000000000081565b6040516001600160a01b0390911681526020015b60405180910390f35b6100b360005481565b6040519081526020016100a1565b6100646100cf366004610249565b6101ab565b336001600160a01b037f000000000000000000000000000000000000000000000000000000000000000016146101425760405162461bcd60e51b815260206004820152600e60248201526d139bdd08185d5d1a1bdc9a5e995960921b60448201526064015b60405180910390fd5b600054604051637ed66abb60e11b815282916001600160a01b0383169163fdacd576916101759160040190815260200190565b600060405180830381600087803b15801561018f57600080fd5b505af11580156101a3573d6000803e3d6000fd5b505050505050565b336001600160a01b037f000000000000000000000000000000000000000000000000000000000000000016146102145760405162461bcd60e51b815260206004820152600e60248201526d139bdd08185d5d1a1bdc9a5e995960921b6044820152606401610139565b600055565b60006020828403121561022b57600080fd5b81356001600160a01b038116811461024257600080fd5b9392505050565b60006020828403121561025b57600080fd5b503591905056fea2646970667358221220699a85bf1bcad3582435fbb71455142665c5f7dcc7a9f039190387a5c341d78564736f6c63430008180033","linkReferences":{}},"methodIdentifiers":{"lastCompletedMigration()":"fbdbad3c","owner()":"8da5cb5b","setCompleted(uint256)":"fdacd576","upgrade(address)":"0900f010"},"id":7}