{"abi":[{"type":"constructor","inputs":[],"stateMutability":"nonpayable"},{"type":"function","name":"getLastMigratedVersion","inputs":[],"outputs":[{"name":"","type":"uint256","internalType":"uint256"}],"stateMutability":"view"},{"type":"function","name":"lastCompletedMigration","inputs":[],"outputs":[{"name":"","type":"uint256","internalType":"uint256"}],"stateMutability":"view"},{"type":"function","name":"owner","inputs":[],"outputs":[{"name":"","type":"address","internalType":"address"}],"stateMutability":"view"},{"type":"function","name":"setCompleted","inputs":[{"name":"completed","type":"uint256","internalType":"uint256"}],"outputs":[],"stateMutability":"nonpayable"},{"type":"function","name":"upgrade","inputs":[{"name":"newAddress","type":"address","internalType":"address"}],"outputs":[],"stateMutability":"nonpayable"}],"bytecode":{"object":"0x60a060405234801561001057600080fd5b503373ffffffffffffffffffffffffffffffffffffffff1660808173ffffffffffffffffffffffffffffffffffffffff168152505060805161052761006d6000396000818160f0015281816101f4015261023401526105276000f3fe608060405234801561001057600080fd5b50600436106100575760003560e01c80630900f0101461005c5780638da5cb5b14610078578063a94855b314610096578063fbdbad3c146100b4578063fdacd576146100d2575b600080fd5b6100766004803603810190610071919061032d565b6100ee565b005b6100806101f2565b60405161008d9190610369565b60405180910390f35b61009e610216565b6040516100ab919061039d565b60405180910390f35b6100bc61022c565b6040516100c9919061039d565b60405180910390f35b6100ec60048036038101906100e791906103e4565b610232565b005b7f000000000000000000000000000000000000000000000000000000000000000073ffffffffffffffffffffffffffffffffffffffff163373ffffffffffffffffffffffffffffffffffffffff161461017c576040517f08c379a00000000000000000000000000000000000000000000000000000000081526004016101739061046e565b60405180910390fd5b60008190508073ffffffffffffffffffffffffffffffffffffffff1663fdacd5766000546040518263ffffffff1660e01b81526004016101bc919061039d565b600060405180830381600087803b1580156101d657600080fd5b505af11580156101ea573d6000803e3d6000fd5b505050505050565b7f000000000000000000000000000000000000000000000000000000000000000081565b6000600160005461022791906104bd565b905090565b60005481565b7f000000000000000000000000000000000000000000000000000000000000000073ffffffffffffffffffffffffffffffffffffffff163373ffffffffffffffffffffffffffffffffffffffff16146102c0576040517f08c379a00000000000000000000000000000000000000000000000000000000081526004016102b79061046e565b60405180910390fd5b8060008190555050565b600080fd5b600073ffffffffffffffffffffffffffffffffffffffff82169050919050565b60006102fa826102cf565b9050919050565b61030a816102ef565b811461031557600080fd5b50565b60008135905061032781610301565b92915050565b600060208284031215610343576103426102ca565b5b600061035184828501610318565b91505092915050565b610363816102ef565b82525050565b600060208201905061037e600083018461035a565b92915050565b6000819050919050565b61039781610384565b82525050565b60006020820190506103b2600083018461038e565b92915050565b6103c181610384565b81146103cc57600080fd5b50565b6000813590506103de816103b8565b92915050565b6000602082840312156103fa576103f96102ca565b5b6000610408848285016103cf565b91505092915050565b600082825260208201905092915050565b7f4e6f7420617574686f72697a6564000000000000000000000000000000000000600082015250565b6000610458600e83610411565b915061046382610422565b602082019050919050565b600060208201905081810360008301526104878161044b565b9050919050565b7f4e487b7100000000000000000000000000000000000000000000000000000000600052601160045260246000fd5b60006104c882610384565b91506104d383610384565b92508282019050808211156104eb576104ea61048e565b5b9291505056fea26469706673582212205338cba5101f048c0a89a4201917f21b47ab8496a89134141156abd90ea956c264736f6c63430008180033","linkReferences":{}},"methodIdentifiers":{"getLastMigratedVersion()":"a94855b3","lastCompletedMigration()":"fbdbad3c","owner()":"8da5cb5b","setCompleted(uint256)":"fdacd576","upgrade(address)":"0900f010"},"id":5}