{"abi":[{"type":"constructor","inputs":[],"stateMutability":"nonpayable"},{"type":"function","name":"getLastMigratedVersion","inputs":[],"outputs":[{"name":"","type":"uint256","internalType":"uint256"}],"stateMutability":"view"},{"type":"function","name":"lastCompletedMigration","inputs":[],"outputs":[{"name":"","type":"uint256","internalType":"uint256"}],"stateMutability":"view"},{"type":"function","name":"owner","inputs":[],"outputs":[{"name":"","type":"address","internalType":"address"}],"stateMutability":"view"},{"type":"function","name":"setCompleted","inputs":[{"name":"completed","type":"uint256","internalType":"uint256"}],"outputs":[],"stateMutability":"nonpayable"},{"type":"function","name":"upgrade","inputs":[{"name":"newAddress","type":"address","internalType":"address"}],"outputs":[],"stateMutability":"nonpayable"}],"bytecode":{"object":"0x60a060405234801561001057600080fd5b50336080526080516102e661003c6000396000818160760152818160f201526101dd01526102e66000f3fe608060405234801561001057600080fd5b50600436106100575760003560e01c80630900f0101461005c5780638da5cb5b14610071578063a94855b3146100b5578063fbdbad3c146100cb578063fdacd576146100d4575b600080fd5b61006f61006a366004610240565b6100e7565b005b6100987f000000000000000000000000000000000000000000000000000000000000000081565b6040516001600160a01b0390911681526020015b60405180910390f35b6100bd6101be565b6040519081526020016100ac565b6100bd60005481565b61006f6100e2366004610270565b6101d2565b336001600160a01b037f000000000000000000000000000000000000000000000000000000000000000016146101555760405162461bcd60e51b815260206004820152600e60248201526d139bdd08185d5d1a1bdc9a5e995960921b60448201526064015b60405180910390fd5b600054604051637ed66abb60e11b815282916001600160a01b0383169163fdacd576916101889160040190815260200190565b600060405180830381600087803b1580156101a257600080fd5b505af11580156101b6573d6000803e3d6000fd5b505050505050565b600080546101cd906001610289565b905090565b336001600160a01b037f0000000000000000000000000000000000000000000000000000000000000000161461023b5760405162461bcd60e51b815260206004820152600e60248201526d139bdd08185d5d1a1bdc9a5e995960921b604482015260640161014c565b600055565b60006020828403121561025257600080fd5b81356001600160a01b038116811461026957600080fd5b9392505050565b60006020828403121561028257600080fd5b5035919050565b808201808211156102aa57634e487b7160e01b600052601160045260246000fd5b9291505056fea264697066735822122062ff207edd771ea7e81fc567e0a57d98519b8f89977e9d7c9b471a33f5d9c8e964736f6c63430008180033","linkReferences":{}},"methodIdentifiers":{"getLastMigratedVersion()":"a94855b3","lastCompletedMigration()":"fbdbad3c","owner()":"8da5cb5b","setCompleted(uint256)":"fdacd576","upgrade(address)":"0900f010"},"id":4}