{"abi":[{"type":"constructor","inputs":[{"name":"_oracle","type":"address","internalType":"address"},{"name":"_betPayout","type":"address","internalType":"address"},{"name":"initialOwner","type":"address","internalType":"address"}],"stateMutability":"nonpayable"},{"type":"function","name":"MINIMUM_BET","inputs":[],"outputs":[{"name":"","type":"uint256","internalType":"uint256"}],"stateMutability":"view"},{"type":"function","name":"anotherProtectedFunction","inputs":[],"outputs":[],"stateMutability":"view"},{"type":"function","name":"createMatch","inputs":[{"name":"matchId","type":"bytes32","internalType":"bytes32"}],"outputs":[],"stateMutability":"nonpayable"},{"type":"function","name":"disable","inputs":[],"outputs":[],"stateMutability":"nonpayable"},{"type":"function","name":"disabled","inputs":[],"outputs":[{"name":"","type":"bool","internalType":"bool"}],"stateMutability":"view"},{"type":"function","name":"enable","inputs":[],"outputs":[],"stateMutability":"nonpayable"},{"type":"function","name":"getContractBalance","inputs":[],"outputs":[{"name":"","type":"uint256","internalType":"uint256"}],"stateMutability":"view"},{"type":"function","name":"getTeamAPercentage","inputs":[{"name":"matchId","type":"bytes32","internalType":"bytes32"}],"outputs":[{"name":"","type":"uint256","internalType":"uint256"}],"stateMutability":"view"},{"type":"function","name":"getTeamAPrice","inputs":[{"name":"matchId","type":"bytes32","internalType":"bytes32"}],"outputs":[{"name":"","type":"uint256","internalType":"uint256"}],"stateMutability":"view"},{"type":"function","name":"getTeamAVolume","inputs":[{"name":"matchId","type":"bytes32","internalType":"bytes32"}],"outputs":[{"name":"","type":"uint256","internalType":"uint256"}],"stateMutability":"view"},{"type":"function","name":"getTeamBPercentage","inputs":[{"name":"matchId","type":"bytes32","internalType":"bytes32"}],"outputs":[{"name":"","type":"uint256","internalType":"uint256"}],"stateMutability":"view"},{"type":"function","name":"getTeamBPrice","inputs":[{"name":"matchId","type":"bytes32","internalType":"bytes32"}],"outputs":[{"name":"","type":"uint256","internalType":"uint256"}],"stateMutability":"view"},{"type":"function","name":"getTeamBVolume","inputs":[{"name":"matchId","type":"bytes32","internalType":"bytes32"}],"outputs":[{"name":"","type":"uint256","internalType":"uint256"}],"stateMutability":"view"},{"type":"function","name":"getTotalPool","inputs":[{"name":"matchId","type":"bytes32","internalType":"bytes32"}],"outputs":[{"name":"","type":"uint256","internalType":"uint256"}],"stateMutability":"view"},{"type":"function","name":"initialVolume","inputs":[],"outputs":[{"name":"","type":"uint256","internalType":"uint256"}],"stateMutability":"view"},{"type":"function","name":"matches","inputs":[{"name":"","type":"bytes32","internalType":"bytes32"}],"outputs":[{"name":"teamAVolume","type":"uint256","internalType":"uint256"},{"name":"teamBVolume","type":"uint256","internalType":"uint256"},{"name":"totalPool","type":"uint256","internalType":"uint256"}],"stateMutability":"view"},{"type":"function","name":"owner","inputs":[],"outputs":[{"name":"","type":"address","internalType":"address"}],"stateMutability":"view"},{"type":"function","name":"placeBet","inputs":[{"name":"matchId","type":"bytes32","internalType":"bytes32"},{"name":"amount","type":"uint32","internalType":"uint32"},{"name":"team","type":"bool","internalType":"bool"}],"outputs":[],"stateMutability":"payable"},{"type":"function","name":"protectedFunction","inputs":[],"outputs":[],"stateMutability":"nonpayable"},{"type":"function","name":"renounceOwnership","inputs":[],"outputs":[],"stateMutability":"nonpayable"},{"type":"function","name":"transferOwnership","inputs":[{"name":"newOwner","type":"address","internalType":"address"}],"outputs":[],"stateMutability":"nonpayable"},{"type":"function","name":"userSharesA","inputs":[{"name":"","type":"bytes32","internalType":"bytes32"},{"name":"","type":"address","internalType":"address"}],"outputs":[{"name":"","type":"uint256","internalType":"uint256"}],"stateMutability":"view"},{"type":"function","name":"userSharesB","inputs":[{"name":"","type":"bytes32","internalType":"bytes32"},{"name":"","type":"address","internalType":"address"}],"outputs":[{"name":"","type":"uint256","internalType":"uint256"}],"stateMutability":"view"},{"type":"function","name":"withdraw","inputs":[],"outputs":[],"stateMutability":"nonpayable"},{"type":"event","name":"OwnershipTransferred","inputs":[{"name":"previousOwner","type":"address","indexed":true,"internalType":"address"},{"name":"newOwner","type":"address","indexed":true,"internalType":"address"}],"anonymous":false},{"type":"error","name":"OwnableInvalidOwner","inputs":[{"name":"owner","type":"address","internalType":"address"}]},{"type":"error","name":"OwnableUnauthorizedAccount","inputs":[{"name":"account","type":"address","internalType":"address"}]}],"bytecode":{"object":"0x60806040526000805460ff60a01b1916905534801561001d57600080fd5b50604051610cbd380380610cbd83398101604081905261003c91610119565b80806001600160a01b03811661006c57604051631e4fbdf760e01b81526000600482015260240160405180910390fd5b610075816100ad565b5050600180546001600160a01b039485166001600160a01b03199182161790915560028054939094169216919091179091555061015c565b600080546001600160a01b038381166001600160a01b0319831681178455604051919092169283917f8be0079c531659141344cd1fd0a4f28419497f9722a3daafe3b4186f6b6457e09190a35050565b80516001600160a01b038116811461011457600080fd5b919050565b60008060006060848603121561012e57600080fd5b610137846100fd565b9250610145602085016100fd565b9150610153604085016100fd565b90509250925092565b610b528061016b6000396000f3fe60806040526004361061014b5760003560e01c806382721e6a116100b6578063a6dd96d91161006f578063a6dd96d914610396578063a909b828146103c6578063ce93836b146103fe578063ee0708051461041e578063f2f8c8021461044f578063f2fde38b1461046f57600080fd5b806382721e6a146102bc578063836a5345146101505780638da5cb5b146102e9578063935aae40146103115780639fe9ada31461032a578063a3907d711461038157600080fd5b80633572553911610108578063357255391461021a5780633ccfd60b1461024a5780636f9fb98a1461025f578063715018a614610272578063727c1123146102875780637bbfe34c1461029c57600080fd5b8063021e98941461015057806304f9a63d1461016757806307f643391461017a57806320a22a51146101ad5780632f2770db146101e557806334b17f45146101fa575b600080fd5b34801561015c57600080fd5b5061016561048f565b005b6101656101753660046109e8565b6104e7565b34801561018657600080fd5b5061019a610195366004610a38565b610726565b6040519081526020015b60405180910390f35b3480156101b957600080fd5b5061019a6101c8366004610a6d565b600560209081526000928352604080842090915290825290205481565b3480156101f157600080fd5b5061016561074f565b34801561020657600080fd5b50610165610215366004610a38565b61076c565b34801561022657600080fd5b5061019a610235366004610a38565b60009081526003602052604090206001015490565b34801561025657600080fd5b50610165610805565b34801561026b57600080fd5b504761019a565b34801561027e57600080fd5b50610165610898565b34801561029357600080fd5b5061019a606481565b3480156102a857600080fd5b5061019a6102b7366004610a38565b6108aa565b3480156102c857600080fd5b5061019a6102d7366004610a38565b60009081526003602052604090205490565b3480156102f557600080fd5b506000546040516001600160a01b0390911681526020016101a4565b34801561031d57600080fd5b5061019a64e8d4a5100081565b34801561033657600080fd5b50610366610345366004610a38565b60036020526000908152604090208054600182015460029092015490919083565b604080519384526020840192909252908201526060016101a4565b34801561038d57600080fd5b506101656108c9565b3480156103a257600080fd5b5061019a6103b1366004610a38565b60009081526003602052604090206002015490565b3480156103d257600080fd5b5061019a6103e1366004610a6d565b600460209081526000928352604080842090915290825290205481565b34801561040a57600080fd5b5061019a610419366004610a38565b6108e0565b34801561042a57600080fd5b5060005461043f90600160a01b900460ff1681565b60405190151581526020016101a4565b34801561045b57600080fd5b5061019a61046a366004610a38565b61090a565b34801561047b57600080fd5b5061016561048a366004610a99565b61092d565b600054600160a01b900460ff16156104e55760405162461bcd60e51b815260206004820152601460248201527310dbdb9d1c9858dd081a5cc8191a5cd8589b195960621b60448201526064015b60405180910390fd5b565b64e8d4a510003410156105475760405162461bcd60e51b815260206004820152602260248201527f56616c6f72206d656e6f7220717565206f206d696e696d6f207065726d697469604482015261646f60f01b60648201526084016104dc565b60008263ffffffff16116105a85760405162461bcd60e51b815260206004820152602260248201527f5175616e746964616465206465766520736572206d61696f7220717565207a65604482015261726f60f01b60648201526084016104dc565b600083815260036020526040902060028101546105f95760405162461bcd60e51b815260206004820152600f60248201526e13585d18da081b9bdd08199bdd5b99608a1b60448201526064016104dc565b8115610681576002810154815460009161061291610aca565b90508363ffffffff1682600001600082825461062e9190610aec565b90915550600090506106468263ffffffff8716610aca565b6000878152600460209081526040808320338452909152812080549293508392909190610674908490610aec565b9091555061070192505050565b6000816002015482600101546106979190610aca565b90508363ffffffff168260010160008282546106b39190610aec565b90915550600090506106cb8263ffffffff8716610aca565b60008781526005602090815260408083203384529091528120805492935083929091906106f9908490610aec565b909155505050505b8263ffffffff1681600201600082825461071b9190610aec565b909155505050505050565b6000818152600360205260408120600281015460018201546107489190610aca565b9392505050565b61075761096b565b6000805460ff60a01b1916600160a01b179055565b61077461096b565b600081815260036020526040902060020154156107ca5760405162461bcd60e51b81526020600482015260146024820152734d6174636820616c72656164792065786973747360601b60448201526064016104dc565b6000818152600360205260409020606480825560019091018190556107f0906002610b05565b60009182526003602052604090912060020155565b61080d61096b565b478061085b5760405162461bcd60e51b815260206004820152601760248201527f4e656e68756d2073616c646f207061726120736163617200000000000000000060448201526064016104dc565b600080546040516001600160a01b039091169183156108fc02918491818181858888f19350505050158015610894573d6000803e3d6000fd5b5050565b6108a061096b565b6104e56000610998565b6000818152600360205260408120600281015481546107489190610aca565b6108d161096b565b6000805460ff60a01b19169055565b600081815260036020526040812060028101548154610900906064610b05565b6107489190610aca565b600081815260036020526040812060028101546001820154610900906064610b05565b61093561096b565b6001600160a01b03811661095f57604051631e4fbdf760e01b8152600060048201526024016104dc565b61096881610998565b50565b6000546001600160a01b031633146104e55760405163118cdaa760e01b81523360048201526024016104dc565b600080546001600160a01b038381166001600160a01b0319831681178455604051919092169283917f8be0079c531659141344cd1fd0a4f28419497f9722a3daafe3b4186f6b6457e09190a35050565b6000806000606084860312156109fd57600080fd5b83359250602084013563ffffffff81168114610a1857600080fd5b915060408401358015158114610a2d57600080fd5b809150509250925092565b600060208284031215610a4a57600080fd5b5035919050565b80356001600160a01b0381168114610a6857600080fd5b919050565b60008060408385031215610a8057600080fd5b82359150610a9060208401610a51565b90509250929050565b600060208284031215610aab57600080fd5b61074882610a51565b634e487b7160e01b600052601160045260246000fd5b600082610ae757634e487b7160e01b600052601260045260246000fd5b500490565b80820180821115610aff57610aff610ab4565b92915050565b8082028115828204841417610aff57610aff610ab456fea26469706673582212207ab5e177ccb355a8a1b78cd9e8df4ad91c08f2b10270d6a2475b6be6932a188864736f6c63430008180033","linkReferences":{}},"methodIdentifiers":{"MINIMUM_BET()":"935aae40","anotherProtectedFunction()":"836a5345","createMatch(bytes32)":"34b17f45","disable()":"2f2770db","disabled()":"ee070805","enable()":"a3907d71","getContractBalance()":"6f9fb98a","getTeamAPercentage(bytes32)":"ce93836b","getTeamAPrice(bytes32)":"7bbfe34c","getTeamAVolume(bytes32)":"82721e6a","getTeamBPercentage(bytes32)":"f2f8c802","getTeamBPrice(bytes32)":"07f64339","getTeamBVolume(bytes32)":"35725539","getTotalPool(bytes32)":"a6dd96d9","initialVolume()":"727c1123","matches(bytes32)":"9fe9ada3","owner()":"8da5cb5b","placeBet(bytes32,uint32,bool)":"04f9a63d","protectedFunction()":"021e9894","renounceOwnership()":"715018a6","transferOwnership(address)":"f2fde38b","userSharesA(bytes32,address)":"a909b828","userSharesB(bytes32,address)":"20a22a51","withdraw()":"3ccfd60b"},"id":1}