{"abi":[{"type":"constructor","inputs":[],"stateMutability":"nonpayable"},{"type":"function","name":"MINIMUM_BET","inputs":[],"outputs":[{"name":"","type":"uint256","internalType":"uint256"}],"stateMutability":"view"},{"type":"function","name":"createMatch","inputs":[{"name":"matchId","type":"bytes32","internalType":"bytes32"}],"outputs":[],"stateMutability":"nonpayable"},{"type":"function","name":"getContractBalance","inputs":[],"outputs":[{"name":"","type":"uint256","internalType":"uint256"}],"stateMutability":"view"},{"type":"function","name":"getTeamAPercentage","inputs":[{"name":"matchId","type":"bytes32","internalType":"bytes32"}],"outputs":[{"name":"","type":"uint256","internalType":"uint256"}],"stateMutability":"view"},{"type":"function","name":"getTeamAPrice","inputs":[{"name":"matchId","type":"bytes32","internalType":"bytes32"}],"outputs":[{"name":"","type":"uint256","internalType":"uint256"}],"stateMutability":"view"},{"type":"function","name":"getTeamAVolume","inputs":[{"name":"matchId","type":"bytes32","internalType":"bytes32"}],"outputs":[{"name":"","type":"uint256","internalType":"uint256"}],"stateMutability":"view"},{"type":"function","name":"getTeamBPercentage","inputs":[{"name":"matchId","type":"bytes32","internalType":"bytes32"}],"outputs":[{"name":"","type":"uint256","internalType":"uint256"}],"stateMutability":"view"},{"type":"function","name":"getTeamBPrice","inputs":[{"name":"matchId","type":"bytes32","internalType":"bytes32"}],"outputs":[{"name":"","type":"uint256","internalType":"uint256"}],"stateMutability":"view"},{"type":"function","name":"getTeamBVolume","inputs":[{"name":"matchId","type":"bytes32","internalType":"bytes32"}],"outputs":[{"name":"","type":"uint256","internalType":"uint256"}],"stateMutability":"view"},{"type":"function","name":"getTotalPool","inputs":[{"name":"matchId","type":"bytes32","internalType":"bytes32"}],"outputs":[{"name":"","type":"uint256","internalType":"uint256"}],"stateMutability":"view"},{"type":"function","name":"initialVolume","inputs":[],"outputs":[{"name":"","type":"uint256","internalType":"uint256"}],"stateMutability":"view"},{"type":"function","name":"matches","inputs":[{"name":"","type":"bytes32","internalType":"bytes32"}],"outputs":[{"name":"teamAVolume","type":"uint256","internalType":"uint256"},{"name":"teamBVolume","type":"uint256","internalType":"uint256"},{"name":"totalPool","type":"uint256","internalType":"uint256"}],"stateMutability":"view"},{"type":"function","name":"placeBet","inputs":[{"name":"matchId","type":"bytes32","internalType":"bytes32"},{"name":"amount","type":"uint32","internalType":"uint32"},{"name":"team","type":"bool","internalType":"bool"}],"outputs":[],"stateMutability":"payable"},{"type":"function","name":"userSharesA","inputs":[{"name":"","type":"bytes32","internalType":"bytes32"},{"name":"","type":"address","internalType":"address"}],"outputs":[{"name":"","type":"uint256","internalType":"uint256"}],"stateMutability":"view"},{"type":"function","name":"userSharesB","inputs":[{"name":"","type":"bytes32","internalType":"bytes32"},{"name":"","type":"address","internalType":"address"}],"outputs":[{"name":"","type":"uint256","internalType":"uint256"}],"stateMutability":"view"},{"type":"function","name":"withdraw","inputs":[],"outputs":[],"stateMutability":"nonpayable"}],"bytecode":{"object":"0x60a060405234801561001057600080fd5b503360805260805161094561003760003960008181610673015261074901526109456000f3fe6080604052600436106100f35760003560e01c80637bbfe34c1161008a578063a6dd96d911610059578063a6dd96d9146102c2578063a909b828146102f2578063ce93836b1461032a578063f2f8c8021461034a57600080fd5b80637bbfe34c1461020557806382721e6a14610225578063935aae40146102525780639fe9ada31461026b57600080fd5b806335725539116100c657806335725539146101985780633ccfd60b146101c85780636f9fb98a146101dd578063727c1123146101f057600080fd5b806304f9a63d146100f857806307f643391461010d57806320a22a511461014057806334b17f4514610178575b600080fd5b61010b610106366004610802565b61036a565b005b34801561011957600080fd5b5061012d610128366004610852565b6105ae565b6040519081526020015b60405180910390f35b34801561014c57600080fd5b5061012d61015b36600461086b565b600260209081526000928352604080842090915290825290205481565b34801561018457600080fd5b5061010b610193366004610852565b6105d7565b3480156101a457600080fd5b5061012d6101b3366004610852565b60009081526020819052604090206001015490565b3480156101d457600080fd5b5061010b610668565b3480156101e957600080fd5b504761012d565b3480156101fc57600080fd5b5061012d606481565b34801561021157600080fd5b5061012d610220366004610852565b610796565b34801561023157600080fd5b5061012d610240366004610852565b60009081526020819052604090205490565b34801561025e57600080fd5b5061012d64e8d4a5100081565b34801561027757600080fd5b506102a7610286366004610852565b60006020819052908152604090208054600182015460029092015490919083565b60408051938452602084019290925290820152606001610137565b3480156102ce57600080fd5b5061012d6102dd366004610852565b60009081526020819052604090206002015490565b3480156102fe57600080fd5b5061012d61030d36600461086b565b600160209081526000928352604080842090915290825290205481565b34801561033657600080fd5b5061012d610345366004610852565b6107b5565b34801561035657600080fd5b5061012d610365366004610852565b6107df565b64e8d4a510003410156103cf5760405162461bcd60e51b815260206004820152602260248201527f56616c6f72206d656e6f7220717565206f206d696e696d6f207065726d697469604482015261646f60f01b60648201526084015b60405180910390fd5b60008263ffffffff16116104305760405162461bcd60e51b815260206004820152602260248201527f5175616e746964616465206465766520736572206d61696f7220717565207a65604482015261726f60f01b60648201526084016103c6565b600083815260208190526040902060028101546104815760405162461bcd60e51b815260206004820152600f60248201526e13585d18da081b9bdd08199bdd5b99608a1b60448201526064016103c6565b8115610509576002810154815460009161049a916108bd565b90508363ffffffff168260000160008282546104b691906108df565b90915550600090506104ce8263ffffffff87166108bd565b60008781526001602090815260408083203384529091528120805492935083929091906104fc9084906108df565b9091555061058992505050565b60008160020154826001015461051f91906108bd565b90508363ffffffff1682600101600082825461053b91906108df565b90915550600090506105538263ffffffff87166108bd565b60008781526002602090815260408083203384529091528120805492935083929091906105819084906108df565b909155505050505b8263ffffffff168160020160008282546105a391906108df565b909155505050505050565b6000818152602081905260408120600281015460018201546105d091906108bd565b9392505050565b6000818152602081905260409020600201541561062d5760405162461bcd60e51b81526020600482015260146024820152734d6174636820616c72656164792065786973747360601b60448201526064016103c6565b6000818152602081905260409020606480825560019091018190556106539060026108f8565b60009182526020829052604090912060020155565b336001600160a01b037f000000000000000000000000000000000000000000000000000000000000000016146106ee5760405162461bcd60e51b815260206004820152602560248201527f4170656e6173206f20646f6e6f20706f6465206368616d617220657374612066604482015264756e63616f60d81b60648201526084016103c6565b478061073c5760405162461bcd60e51b815260206004820152601760248201527f4e656e68756d2073616c646f207061726120736163617200000000000000000060448201526064016103c6565b6040516001600160a01b037f0000000000000000000000000000000000000000000000000000000000000000169082156108fc029083906000818181858888f19350505050158015610792573d6000803e3d6000fd5b5050565b6000818152602081905260408120600281015481546105d091906108bd565b6000818152602081905260408120600281015481546107d59060646108f8565b6105d091906108bd565b6000818152602081905260408120600281015460018201546107d59060646108f8565b60008060006060848603121561081757600080fd5b83359250602084013563ffffffff8116811461083257600080fd5b91506040840135801515811461084757600080fd5b809150509250925092565b60006020828403121561086457600080fd5b5035919050565b6000806040838503121561087e57600080fd5b8235915060208301356001600160a01b038116811461089c57600080fd5b809150509250929050565b634e487b7160e01b600052601160045260246000fd5b6000826108da57634e487b7160e01b600052601260045260246000fd5b500490565b808201808211156108f2576108f26108a7565b92915050565b80820281158282048414176108f2576108f26108a756fea2646970667358221220744006daaaa0b214475b1bc8fd260ef4e99395748cde9093bf72acf600846d6864736f6c63430008180033","linkReferences":{}},"methodIdentifiers":{"MINIMUM_BET()":"935aae40","createMatch(bytes32)":"34b17f45","getContractBalance()":"6f9fb98a","getTeamAPercentage(bytes32)":"ce93836b","getTeamAPrice(bytes32)":"7bbfe34c","getTeamAVolume(bytes32)":"82721e6a","getTeamBPercentage(bytes32)":"f2f8c802","getTeamBPrice(bytes32)":"07f64339","getTeamBVolume(bytes32)":"35725539","getTotalPool(bytes32)":"a6dd96d9","initialVolume()":"727c1123","matches(bytes32)":"9fe9ada3","placeBet(bytes32,uint32,bool)":"04f9a63d","userSharesA(bytes32,address)":"a909b828","userSharesB(bytes32,address)":"20a22a51","withdraw()":"3ccfd60b"},"id":2}