{"abi":[{"type":"constructor","inputs":[{"name":"_oracle","type":"address","internalType":"address"},{"name":"_betPayout","type":"address","internalType":"address"},{"name":"initialOwner","type":"address","internalType":"address"}],"stateMutability":"nonpayable"},{"type":"function","name":"MINIMUM_BET","inputs":[],"outputs":[{"name":"","type":"uint256","internalType":"uint256"}],"stateMutability":"view"},{"type":"function","name":"anotherProtectedFunction","inputs":[],"outputs":[],"stateMutability":"view"},{"type":"function","name":"createMatch","inputs":[{"name":"matchId","type":"bytes32","internalType":"bytes32"}],"outputs":[],"stateMutability":"nonpayable"},{"type":"function","name":"disable","inputs":[],"outputs":[],"stateMutability":"nonpayable"},{"type":"function","name":"disabled","inputs":[],"outputs":[{"name":"","type":"bool","internalType":"bool"}],"stateMutability":"view"},{"type":"function","name":"enable","inputs":[],"outputs":[],"stateMutability":"nonpayable"},{"type":"function","name":"getContractBalance","inputs":[],"outputs":[{"name":"","type":"uint256","internalType":"uint256"}],"stateMutability":"view"},{"type":"function","name":"getTeamAPercentage","inputs":[{"name":"matchId","type":"bytes32","internalType":"bytes32"}],"outputs":[{"name":"","type":"uint256","internalType":"uint256"}],"stateMutability":"view"},{"type":"function","name":"getTeamAPrice","inputs":[{"name":"matchId","type":"bytes32","internalType":"bytes32"}],"outputs":[{"name":"","type":"uint256","internalType":"uint256"}],"stateMutability":"view"},{"type":"function","name":"getTeamAVolume","inputs":[{"name":"matchId","type":"bytes32","internalType":"bytes32"}],"outputs":[{"name":"","type":"uint256","internalType":"uint256"}],"stateMutability":"view"},{"type":"function","name":"getTeamBPercentage","inputs":[{"name":"matchId","type":"bytes32","internalType":"bytes32"}],"outputs":[{"name":"","type":"uint256","internalType":"uint256"}],"stateMutability":"view"},{"type":"function","name":"getTeamBPrice","inputs":[{"name":"matchId","type":"bytes32","internalType":"bytes32"}],"outputs":[{"name":"","type":"uint256","internalType":"uint256"}],"stateMutability":"view"},{"type":"function","name":"getTeamBVolume","inputs":[{"name":"matchId","type":"bytes32","internalType":"bytes32"}],"outputs":[{"name":"","type":"uint256","internalType":"uint256"}],"stateMutability":"view"},{"type":"function","name":"getTotalPool","inputs":[{"name":"matchId","type":"bytes32","internalType":"bytes32"}],"outputs":[{"name":"","type":"uint256","internalType":"uint256"}],"stateMutability":"view"},{"type":"function","name":"initialVolume","inputs":[],"outputs":[{"name":"","type":"uint256","internalType":"uint256"}],"stateMutability":"view"},{"type":"function","name":"matches","inputs":[{"name":"","type":"bytes32","internalType":"bytes32"}],"outputs":[{"name":"teamAVolume","type":"uint256","internalType":"uint256"},{"name":"teamBVolume","type":"uint256","internalType":"uint256"},{"name":"totalPool","type":"uint256","internalType":"uint256"}],"stateMutability":"view"},{"type":"function","name":"owner","inputs":[],"outputs":[{"name":"","type":"address","internalType":"address"}],"stateMutability":"view"},{"type":"function","name":"placeBet","inputs":[{"name":"matchId","type":"bytes32","internalType":"bytes32"},{"name":"amount","type":"uint32","internalType":"uint32"},{"name":"team","type":"bool","internalType":"bool"}],"outputs":[],"stateMutability":"payable"},{"type":"function","name":"protectedFunction","inputs":[],"outputs":[],"stateMutability":"nonpayable"},{"type":"function","name":"renounceOwnership","inputs":[],"outputs":[],"stateMutability":"nonpayable"},{"type":"function","name":"transferOwnership","inputs":[{"name":"newOwner","type":"address","internalType":"address"}],"outputs":[],"stateMutability":"nonpayable"},{"type":"function","name":"userSharesA","inputs":[{"name":"","type":"bytes32","internalType":"bytes32"},{"name":"","type":"address","internalType":"address"}],"outputs":[{"name":"","type":"uint256","internalType":"uint256"}],"stateMutability":"view"},{"type":"function","name":"userSharesB","inputs":[{"name":"","type":"bytes32","internalType":"bytes32"},{"name":"","type":"address","internalType":"address"}],"outputs":[{"name":"","type":"uint256","internalType":"uint256"}],"stateMutability":"view"},{"type":"function","name":"withdraw","inputs":[],"outputs":[],"stateMutability":"nonpayable"},{"type":"event","name":"OwnershipTransferred","inputs":[{"name":"previousOwner","type":"address","indexed":true,"internalType":"address"},{"name":"newOwner","type":"address","indexed":true,"internalType":"address"}],"anonymous":false},{"type":"error","name":"OwnableInvalidOwner","inputs":[{"name":"owner","type":"address","internalType":"address"}]},{"type":"error","name":"OwnableUnauthorizedAccount","inputs":[{"name":"account","type":"address","internalType":"address"}]}],"bytecode":{"object":"0x608060405260008060146101000a81548160ff0219169083151502179055503480156200002b57600080fd5b506040516200186938038062001869833981810160405281019062000051919062000294565b8080600073ffffffffffffffffffffffffffffffffffffffff168173ffffffffffffffffffffffffffffffffffffffff1603620000c85760006040517f1e4fbdf7000000000000000000000000000000000000000000000000000000008152600401620000bf919062000301565b60405180910390fd5b620000d9816200016660201b60201c565b505082600160006101000a81548173ffffffffffffffffffffffffffffffffffffffff021916908373ffffffffffffffffffffffffffffffffffffffff16021790555081600260006101000a81548173ffffffffffffffffffffffffffffffffffffffff021916908373ffffffffffffffffffffffffffffffffffffffff1602179055505050506200031e565b60008060009054906101000a900473ffffffffffffffffffffffffffffffffffffffff169050816000806101000a81548173ffffffffffffffffffffffffffffffffffffffff021916908373ffffffffffffffffffffffffffffffffffffffff1602179055508173ffffffffffffffffffffffffffffffffffffffff168173ffffffffffffffffffffffffffffffffffffffff167f8be0079c531659141344cd1fd0a4f28419497f9722a3daafe3b4186f6b6457e060405160405180910390a35050565b600080fd5b600073ffffffffffffffffffffffffffffffffffffffff82169050919050565b60006200025c826200022f565b9050919050565b6200026e816200024f565b81146200027a57600080fd5b50565b6000815190506200028e8162000263565b92915050565b600080600060608486031215620002b057620002af6200022a565b5b6000620002c0868287016200027d565b9350506020620002d3868287016200027d565b9250506040620002e6868287016200027d565b9150509250925092565b620002fb816200024f565b82525050565b6000602082019050620003186000830184620002f0565b92915050565b61153b806200032e6000396000f3fe60806040526004361061014b5760003560e01c806382721e6a116100b6578063a6dd96d91161006f578063a6dd96d91461043b578063a909b82814610478578063ce93836b146104b5578063ee070805146104f2578063f2f8c8021461051d578063f2fde38b1461055a5761014b565b806382721e6a1461033b578063836a5345146103785780638da5cb5b1461038f578063935aae40146103ba5780639fe9ada3146103e5578063a3907d71146104245761014b565b80633572553911610108578063357255391461023d5780633ccfd60b1461027a5780636f9fb98a14610291578063715018a6146102bc578063727c1123146102d35780637bbfe34c146102fe5761014b565b8063021e98941461015057806304f9a63d1461016757806307f643391461018357806320a22a51146101c05780632f2770db146101fd57806334b17f4514610214575b600080fd5b34801561015c57600080fd5b50610165610583565b005b610181600480360381019061017c9190610f11565b6105d5565b005b34801561018f57600080fd5b506101aa60048036038101906101a59190610f64565b610867565b6040516101b79190610faa565b60405180910390f35b3480156101cc57600080fd5b506101e760048036038101906101e29190611023565b61089b565b6040516101f49190610faa565b60405180910390f35b34801561020957600080fd5b506102126108c0565b005b34801561022057600080fd5b5061023b60048036038101906102369190610f64565b6108e5565b005b34801561024957600080fd5b50610264600480360381019061025f9190610f64565b6109a9565b6040516102719190610faa565b60405180910390f35b34801561028657600080fd5b5061028f6109c9565b005b34801561029d57600080fd5b506102a6610a6a565b6040516102b39190610faa565b60405180910390f35b3480156102c857600080fd5b506102d1610a72565b005b3480156102df57600080fd5b506102e8610a86565b6040516102f59190610faa565b60405180910390f35b34801561030a57600080fd5b5061032560048036038101906103209190610f64565b610a8b565b6040516103329190610faa565b60405180910390f35b34801561034757600080fd5b50610362600480360381019061035d9190610f64565b610abf565b60405161036f9190610faa565b60405180910390f35b34801561038457600080fd5b5061038d610adf565b005b34801561039b57600080fd5b506103a4610b31565b6040516103b19190611072565b60405180910390f35b3480156103c657600080fd5b506103cf610b5a565b6040516103dc9190610faa565b60405180910390f35b3480156103f157600080fd5b5061040c60048036038101906104079190610f64565b610b63565b60405161041b9392919061108d565b60405180910390f35b34801561043057600080fd5b50610439610b8d565b005b34801561044757600080fd5b50610462600480360381019061045d9190610f64565b610bb1565b60405161046f9190610faa565b60405180910390f35b34801561048457600080fd5b5061049f600480360381019061049a9190611023565b610bd1565b6040516104ac9190610faa565b60405180910390f35b3480156104c157600080fd5b506104dc60048036038101906104d79190610f64565b610bf6565b6040516104e99190610faa565b60405180910390f35b3480156104fe57600080fd5b50610507610c36565b60405161051491906110d3565b60405180910390f35b34801561052957600080fd5b50610544600480360381019061053f9190610f64565b610c49565b6040516105519190610faa565b60405180910390f35b34801561056657600080fd5b50610581600480360381019061057c91906110ee565b610c89565b005b600060149054906101000a900460ff16156105d3576040517f08c379a00000000000000000000000000000000000000000000000000000000081526004016105ca90611178565b60405180910390fd5b565b64e8d4a5100034101561061d576040517f08c379a00000000000000000000000000000000000000000000000000000000081526004016106149061120a565b60405180910390fd5b60008263ffffffff1611610666576040517f08c379a000000000000000000000000000000000000000000000000000000000815260040161065d9061129c565b60405180910390fd5b600060036000858152602001908152602001600020905060008160020154116106c4576040517f08c379a00000000000000000000000000000000000000000000000000000000081526004016106bb90611308565b60405180910390fd5b8115610787576000816002015482600001546106e09190611386565b90508363ffffffff168260000160008282546106fc91906113b7565b925050819055506000818563ffffffff166107179190611386565b9050806004600088815260200190815260200160002060003373ffffffffffffffffffffffffffffffffffffffff1673ffffffffffffffffffffffffffffffffffffffff168152602001908152602001600020600082825461077991906113b7565b925050819055505050610840565b60008160020154826001015461079d9190611386565b90508363ffffffff168260010160008282546107b991906113b7565b925050819055506000818563ffffffff166107d49190611386565b9050806005600088815260200190815260200160002060003373ffffffffffffffffffffffffffffffffffffffff1673ffffffffffffffffffffffffffffffffffffffff168152602001908152602001600020600082825461083691906113b7565b9250508190555050505b8263ffffffff1681600201600082825461085a91906113b7565b9250508190555050505050565b600080600360008481526020019081526020016000209050806002015481600101546108939190611386565b915050919050565b6005602052816000526040600020602052806000526040600020600091509150505481565b6108c8610d0f565b6001600060146101000a81548160ff021916908315150217905550565b6108ed610d0f565b6000600360008381526020019081526020016000206002015414610946576040517f08c379a000000000000000000000000000000000000000000000000000000000815260040161093d90611437565b60405180910390fd5b60646003600083815260200190815260200160002060000181905550606460036000838152602001908152602001600020600101819055506002606461098c9190611457565b600360008381526020019081526020016000206002018190555050565b600060036000838152602001908152602001600020600101549050919050565b6109d1610d0f565b600047905060008111610a19576040517f08c379a0000000000000000000000000000000000000000000000000000000008152600401610a10906114e5565b60405180910390fd5b610a21610b31565b73ffffffffffffffffffffffffffffffffffffffff166108fc829081150290604051600060405180830381858888f19350505050158015610a66573d6000803e3d6000fd5b5050565b600047905090565b610a7a610d0f565b610a846000610d96565b565b606481565b60008060036000848152602001908152602001600020905080600201548160000154610ab79190611386565b915050919050565b600060036000838152602001908152602001600020600001549050919050565b600060149054906101000a900460ff1615610b2f576040517f08c379a0000000000000000000000000000000000000000000000000000000008152600401610b2690611178565b60405180910390fd5b565b60008060009054906101000a900473ffffffffffffffffffffffffffffffffffffffff16905090565b64e8d4a5100081565b60036020528060005260406000206000915090508060000154908060010154908060020154905083565b610b95610d0f565b60008060146101000a81548160ff021916908315150217905550565b600060036000838152602001908152602001600020600201549050919050565b6004602052816000526040600020602052806000526040600020600091509150505481565b600080600360008481526020019081526020016000209050806002015460648260000154610c249190611457565b610c2e9190611386565b915050919050565b600060149054906101000a900460ff1681565b600080600360008481526020019081526020016000209050806002015460648260010154610c779190611457565b610c819190611386565b915050919050565b610c91610d0f565b600073ffffffffffffffffffffffffffffffffffffffff168173ffffffffffffffffffffffffffffffffffffffff1603610d035760006040517f1e4fbdf7000000000000000000000000000000000000000000000000000000008152600401610cfa9190611072565b60405180910390fd5b610d0c81610d96565b50565b610d17610e5a565b73ffffffffffffffffffffffffffffffffffffffff16610d35610b31565b73ffffffffffffffffffffffffffffffffffffffff1614610d9457610d58610e5a565b6040517f118cdaa7000000000000000000000000000000000000000000000000000000008152600401610d8b9190611072565b60405180910390fd5b565b60008060009054906101000a900473ffffffffffffffffffffffffffffffffffffffff169050816000806101000a81548173ffffffffffffffffffffffffffffffffffffffff021916908373ffffffffffffffffffffffffffffffffffffffff1602179055508173ffffffffffffffffffffffffffffffffffffffff168173ffffffffffffffffffffffffffffffffffffffff167f8be0079c531659141344cd1fd0a4f28419497f9722a3daafe3b4186f6b6457e060405160405180910390a35050565b600033905090565b600080fd5b6000819050919050565b610e7a81610e67565b8114610e8557600080fd5b50565b600081359050610e9781610e71565b92915050565b600063ffffffff82169050919050565b610eb681610e9d565b8114610ec157600080fd5b50565b600081359050610ed381610ead565b92915050565b60008115159050919050565b610eee81610ed9565b8114610ef957600080fd5b50565b600081359050610f0b81610ee5565b92915050565b600080600060608486031215610f2a57610f29610e62565b5b6000610f3886828701610e88565b9350506020610f4986828701610ec4565b9250506040610f5a86828701610efc565b9150509250925092565b600060208284031215610f7a57610f79610e62565b5b6000610f8884828501610e88565b91505092915050565b6000819050919050565b610fa481610f91565b82525050565b6000602082019050610fbf6000830184610f9b565b92915050565b600073ffffffffffffffffffffffffffffffffffffffff82169050919050565b6000610ff082610fc5565b9050919050565b61100081610fe5565b811461100b57600080fd5b50565b60008135905061101d81610ff7565b92915050565b6000806040838503121561103a57611039610e62565b5b600061104885828601610e88565b92505060206110598582860161100e565b9150509250929050565b61106c81610fe5565b82525050565b60006020820190506110876000830184611063565b92915050565b60006060820190506110a26000830186610f9b565b6110af6020830185610f9b565b6110bc6040830184610f9b565b949350505050565b6110cd81610ed9565b82525050565b60006020820190506110e860008301846110c4565b92915050565b60006020828403121561110457611103610e62565b5b60006111128482850161100e565b91505092915050565b600082825260208201905092915050565b7f436f6e74726163742069732064697361626c6564000000000000000000000000600082015250565b600061116260148361111b565b915061116d8261112c565b602082019050919050565b6000602082019050818103600083015261119181611155565b9050919050565b7f56616c6f72206d656e6f7220717565206f206d696e696d6f207065726d69746960008201527f646f000000000000000000000000000000000000000000000000000000000000602082015250565b60006111f460228361111b565b91506111ff82611198565b604082019050919050565b60006020820190508181036000830152611223816111e7565b9050919050565b7f5175616e746964616465206465766520736572206d61696f7220717565207a6560008201527f726f000000000000000000000000000000000000000000000000000000000000602082015250565b600061128660228361111b565b91506112918261122a565b604082019050919050565b600060208201905081810360008301526112b581611279565b9050919050565b7f4d61746368206e6f7420666f756e640000000000000000000000000000000000600082015250565b60006112f2600f8361111b565b91506112fd826112bc565b602082019050919050565b60006020820190508181036000830152611321816112e5565b9050919050565b7f4e487b7100000000000000000000000000000000000000000000000000000000600052601260045260246000fd5b7f4e487b7100000000000000000000000000000000000000000000000000000000600052601160045260246000fd5b600061139182610f91565b915061139c83610f91565b9250826113ac576113ab611328565b5b828204905092915050565b60006113c282610f91565b91506113cd83610f91565b92508282019050808211156113e5576113e4611357565b5b92915050565b7f4d6174636820616c726561647920657869737473000000000000000000000000600082015250565b600061142160148361111b565b915061142c826113eb565b602082019050919050565b6000602082019050818103600083015261145081611414565b9050919050565b600061146282610f91565b915061146d83610f91565b925082820261147b81610f91565b9150828204841483151761149257611491611357565b5b5092915050565b7f4e656e68756d2073616c646f2070617261207361636172000000000000000000600082015250565b60006114cf60178361111b565b91506114da82611499565b602082019050919050565b600060208201905081810360008301526114fe816114c2565b905091905056fea264697066735822122062dc166d98b915f886ee5996733a674b61c94db14b4deeb9aa2138dd4c4f91b564736f6c63430008180033","linkReferences":{}},"methodIdentifiers":{"MINIMUM_BET()":"935aae40","anotherProtectedFunction()":"836a5345","createMatch(bytes32)":"34b17f45","disable()":"2f2770db","disabled()":"ee070805","enable()":"a3907d71","getContractBalance()":"6f9fb98a","getTeamAPercentage(bytes32)":"ce93836b","getTeamAPrice(bytes32)":"7bbfe34c","getTeamAVolume(bytes32)":"82721e6a","getTeamBPercentage(bytes32)":"f2f8c802","getTeamBPrice(bytes32)":"07f64339","getTeamBVolume(bytes32)":"35725539","getTotalPool(bytes32)":"a6dd96d9","initialVolume()":"727c1123","matches(bytes32)":"9fe9ada3","owner()":"8da5cb5b","placeBet(bytes32,uint32,bool)":"04f9a63d","protectedFunction()":"021e9894","renounceOwnership()":"715018a6","transferOwnership(address)":"f2fde38b","userSharesA(bytes32,address)":"a909b828","userSharesB(bytes32,address)":"20a22a51","withdraw()":"3ccfd60b"},"id":2}