{"abi":[{"type":"function","name":"getAddress","inputs":[],"outputs":[{"name":"","type":"address","internalType":"address"}],"stateMutability":"view"}],"bytecode":{"object":"0x6080604052348015600f57600080fd5b50607680601d6000396000f3fe6080604052348015600f57600080fd5b506004361060285760003560e01c806338cc483114602d575b600080fd5b6040805130815290519081900360200190f3fea26469706673582212207deb86035a87d4ec7367906d17fff2d32fd75cd394c491d3be4351133670298a64736f6c63430008180033","linkReferences":{}},"methodIdentifiers":{"getAddress()":"38cc4831"},"id":4}