{"abi":[{"type":"function","name":"getAddress","inputs":[],"outputs":[{"name":"","type":"address","internalType":"address"}],"stateMutability":"view"}],"bytecode":{"object":"0x608060405234801561001057600080fd5b5060db8061001f6000396000f3fe6080604052348015600f57600080fd5b506004361060285760003560e01c806338cc483114602d575b600080fd5b60336047565b604051603e9190608c565b60405180910390f35b600030905090565b600073ffffffffffffffffffffffffffffffffffffffff82169050919050565b6000607882604f565b9050919050565b608681606f565b82525050565b6000602082019050609f6000830184607f565b9291505056fea26469706673582212206dc609c0cd1ee38d9935b7c25c41108444d6dd2bb30c469f591a99d117d5391864736f6c63430008180033","linkReferences":{}},"methodIdentifiers":{"getAddress()":"38cc4831"},"id":4}