{"abi":[{"type":"constructor","inputs":[],"stateMutability":"nonpayable"},{"type":"function","name":"getA","inputs":[],"outputs":[{"name":"","type":"uint256","internalType":"uint256"}],"stateMutability":"view"},{"type":"function","name":"getB","inputs":[],"outputs":[{"name":"","type":"uint256","internalType":"uint256"}],"stateMutability":"view"},{"type":"function","name":"placeBets","inputs":[{"name":"amount","type":"uint256","internalType":"uint256"}],"outputs":[],"stateMutability":"nonpayable"},{"type":"function","name":"placeBetsJag","inputs":[{"name":"amount","type":"uint256","internalType":"uint256"}],"outputs":[],"stateMutability":"nonpayable"},{"type":"function","name":"viewVolume","inputs":[],"outputs":[{"name":"","type":"uint256","internalType":"uint256"},{"name":"","type":"uint256","internalType":"uint256"}],"stateMutability":"view"}],"bytecode":{"object":"0x608060405234801561001057600080fd5b50606460008190555060646001819055506103c7806100306000396000f3fe608060405234801561001057600080fd5b50600436106100575760003560e01c806319e6f4af1461005c5780635842ec831461007b578063a1c5191514610097578063afab107e146100b5578063d46300fd146100d1575b600080fd5b6100646100ef565b6040516100729291906101e9565b60405180910390f35b61009560048036038101906100909190610243565b610100565b005b61009f61015f565b6040516100ac9190610270565b60405180910390f35b6100cf60048036038101906100ca9190610243565b610169565b005b6100d96101c7565b6040516100e69190610270565b60405180910390f35b600080600054600154915091509091565b60008111610143576040517f08c379a000000000000000000000000000000000000000000000000000000000815260040161013a9061030e565b60405180910390fd5b8060016000828254610155919061035d565b9250508190555050565b6000600154905090565b600081116101ac576040517f08c379a00000000000000000000000000000000000000000000000000000000081526004016101a39061030e565b60405180910390fd5b806000808282546101bd919061035d565b9250508190555050565b60008054905090565b6000819050919050565b6101e3816101d0565b82525050565b60006040820190506101fe60008301856101da565b61020b60208301846101da565b9392505050565b600080fd5b610220816101d0565b811461022b57600080fd5b50565b60008135905061023d81610217565b92915050565b60006020828403121561025957610258610212565b5b60006102678482850161022e565b91505092915050565b600060208201905061028560008301846101da565b92915050565b600082825260208201905092915050565b7f5175616e746964616465206465766520736572206d61696f7220717565207a6560008201527f726f000000000000000000000000000000000000000000000000000000000000602082015250565b60006102f860228361028b565b91506103038261029c565b604082019050919050565b60006020820190508181036000830152610327816102eb565b9050919050565b7f4e487b7100000000000000000000000000000000000000000000000000000000600052601160045260246000fd5b6000610368826101d0565b9150610373836101d0565b925082820190508082111561038b5761038a61032e565b5b9291505056fea26469706673582212205b172b15bcfa5d0c9298ba435897e504d5885092c55317f85653fee39dee0d7a64736f6c63430008180033","linkReferences":{}},"methodIdentifiers":{"getA()":"d46300fd","getB()":"a1c51915","placeBets(uint256)":"afab107e","placeBetsJag(uint256)":"5842ec83","viewVolume()":"19e6f4af"},"id":0}