{"abi":[{"type":"constructor","inputs":[{"name":"initialOwner","type":"address","internalType":"address"}],"stateMutability":"nonpayable"},{"type":"function","name":"anotherProtectedFunction","inputs":[],"outputs":[],"stateMutability":"view"},{"type":"function","name":"disable","inputs":[],"outputs":[],"stateMutability":"nonpayable"},{"type":"function","name":"disabled","inputs":[],"outputs":[{"name":"","type":"bool","internalType":"bool"}],"stateMutability":"view"},{"type":"function","name":"enable","inputs":[],"outputs":[],"stateMutability":"nonpayable"},{"type":"function","name":"owner","inputs":[],"outputs":[{"name":"","type":"address","internalType":"address"}],"stateMutability":"view"},{"type":"function","name":"protectedFunction","inputs":[],"outputs":[],"stateMutability":"nonpayable"},{"type":"function","name":"renounceOwnership","inputs":[],"outputs":[],"stateMutability":"nonpayable"},{"type":"function","name":"transferOwnership","inputs":[{"name":"newOwner","type":"address","internalType":"address"}],"outputs":[],"stateMutability":"nonpayable"},{"type":"event","name":"OwnershipTransferred","inputs":[{"name":"previousOwner","type":"address","indexed":true,"internalType":"address"},{"name":"newOwner","type":"address","indexed":true,"internalType":"address"}],"anonymous":false},{"type":"error","name":"OwnableInvalidOwner","inputs":[{"name":"owner","type":"address","internalType":"address"}]},{"type":"error","name":"OwnableUnauthorizedAccount","inputs":[{"name":"account","type":"address","internalType":"address"}]}],"bytecode":{"object":"0x60806040526000805460ff60a01b1916905534801561001d57600080fd5b506040516103cf3803806103cf83398101604081905261003c916100cb565b806001600160a01b03811661006b57604051631e4fbdf760e01b81526000600482015260240160405180910390fd5b6100748161007b565b50506100fb565b600080546001600160a01b038381166001600160a01b0319831681178455604051919092169283917f8be0079c531659141344cd1fd0a4f28419497f9722a3daafe3b4186f6b6457e09190a35050565b6000602082840312156100dd57600080fd5b81516001600160a01b03811681146100f457600080fd5b9392505050565b6102c58061010a6000396000f3fe608060405234801561001057600080fd5b50600436106100885760003560e01c80638da5cb5b1161005b5780638da5cb5b146100a7578063a3907d71146100c7578063ee070805146100cf578063f2fde38b146100f357600080fd5b8063021e98941461008d5780632f2770db14610097578063715018a61461009f578063836a53451461008d575b600080fd5b610095610106565b005b61009561015e565b61009561017b565b6000546040516001600160a01b0390911681526020015b60405180910390f35b61009561018d565b6000546100e390600160a01b900460ff1681565b60405190151581526020016100be565b61009561010136600461025f565b6101a4565b600054600160a01b900460ff161561015c5760405162461bcd60e51b815260206004820152601460248201527310dbdb9d1c9858dd081a5cc8191a5cd8589b195960621b60448201526064015b60405180910390fd5b565b6101666101e2565b6000805460ff60a01b1916600160a01b179055565b6101836101e2565b61015c600061020f565b6101956101e2565b6000805460ff60a01b19169055565b6101ac6101e2565b6001600160a01b0381166101d657604051631e4fbdf760e01b815260006004820152602401610153565b6101df8161020f565b50565b6000546001600160a01b0316331461015c5760405163118cdaa760e01b8152336004820152602401610153565b600080546001600160a01b038381166001600160a01b0319831681178455604051919092169283917f8be0079c531659141344cd1fd0a4f28419497f9722a3daafe3b4186f6b6457e09190a35050565b60006020828403121561027157600080fd5b81356001600160a01b038116811461028857600080fd5b939250505056fea2646970667358221220711bf926d3058cf84fc4d283c3f0333fb14999ecf575788741ce40610e9e3a7464736f6c63430008180033","linkReferences":{}},"methodIdentifiers":{"anotherProtectedFunction()":"836a5345","disable()":"2f2770db","disabled()":"ee070805","enable()":"a3907d71","owner()":"8da5cb5b","protectedFunction()":"021e9894","renounceOwnership()":"715018a6","transferOwnership(address)":"f2fde38b"},"id":2}