{"abi":[{"type":"function","name":"anotherProtectedFunction","inputs":[],"outputs":[],"stateMutability":"view"},{"type":"function","name":"disable","inputs":[],"outputs":[],"stateMutability":"nonpayable"},{"type":"function","name":"disabled","inputs":[],"outputs":[{"name":"","type":"bool","internalType":"bool"}],"stateMutability":"view"},{"type":"function","name":"enable","inputs":[],"outputs":[],"stateMutability":"nonpayable"},{"type":"function","name":"owner","inputs":[],"outputs":[{"name":"","type":"address","internalType":"address"}],"stateMutability":"view"},{"type":"function","name":"protectedFunction","inputs":[],"outputs":[],"stateMutability":"nonpayable"},{"type":"function","name":"transferOwnership","inputs":[{"name":"newOwner","type":"address","internalType":"address"}],"outputs":[],"stateMutability":"nonpayable"},{"type":"event","name":"OwnershipTransferred","inputs":[{"name":"previousOwner","type":"address","indexed":true,"internalType":"address"},{"name":"newOwner","type":"address","indexed":true,"internalType":"address"}],"anonymous":false}],"bytecode":{"object":"0x60806040526000805460ff60a01b1916905534801561001d57600080fd5b50600080546001600160a01b031916331790556102978061003f6000396000f3fe608060405234801561001057600080fd5b506004361061007d5760003560e01c80638da5cb5b1161005b5780638da5cb5b14610094578063a3907d71146100c4578063ee070805146100cc578063f2fde38b146100f057600080fd5b8063021e9894146100825780632f2770db1461008c578063836a534514610082575b600080fd5b61008a610103565b005b61008a61015a565b6000546100a7906001600160a01b031681565b6040516001600160a01b0390911681526020015b60405180910390f35b61008a610186565b6000546100e090600160a01b900460ff1681565b60405190151581526020016100bb565b61008a6100fe366004610231565b6101ac565b600054600160a01b900460ff16156101585760405162461bcd60e51b815260206004820152601460248201527310dbdb9d1c9858dd081a5cc8191a5cd8589b195960621b604482015260640160405180910390fd5b565b6000546001600160a01b0316331461017157600080fd5b6000805460ff60a01b1916600160a01b179055565b6000546001600160a01b0316331461019d57600080fd5b6000805460ff60a01b19169055565b6000546001600160a01b031633146101c357600080fd5b6001600160a01b0381166101d657600080fd5b600080546040516001600160a01b03808516939216917f8be0079c531659141344cd1fd0a4f28419497f9722a3daafe3b4186f6b6457e091a3600080546001600160a01b0319166001600160a01b0392909216919091179055565b60006020828403121561024357600080fd5b81356001600160a01b038116811461025a57600080fd5b939250505056fea2646970667358221220df4e0d42772c58f80cebaaf16e9491f07d5bb100801d911a245bf598dc67261864736f6c63430008180033","linkReferences":{}},"methodIdentifiers":{"anotherProtectedFunction()":"836a5345","disable()":"2f2770db","disabled()":"ee070805","enable()":"a3907d71","owner()":"8da5cb5b","protectedFunction()":"021e9894","transferOwnership(address)":"f2fde38b"},"id":0}