{"abi":[{"type":"function","name":"disable","inputs":[],"outputs":[],"stateMutability":"nonpayable"},{"type":"function","name":"enable","inputs":[],"outputs":[],"stateMutability":"nonpayable"},{"type":"function","name":"owner","inputs":[],"outputs":[{"name":"","type":"address","internalType":"address"}],"stateMutability":"view"},{"type":"function","name":"transferOwnership","inputs":[{"name":"newOwner","type":"address","internalType":"address"}],"outputs":[],"stateMutability":"nonpayable"},{"type":"event","name":"OwnershipTransferred","inputs":[{"name":"previousOwner","type":"address","indexed":true,"internalType":"address"},{"name":"newOwner","type":"address","indexed":true,"internalType":"address"}],"anonymous":false}],"bytecode":{"object":"0x60806040526000805460ff60a01b1916905534801561001d57600080fd5b50600080546001600160a01b031916331790556101e28061003f6000396000f3fe608060405234801561001057600080fd5b506004361061004c5760003560e01c80632f2770db146100515780638da5cb5b1461005b578063a3907d711461008a578063f2fde38b14610092575b600080fd5b6100596100a5565b005b60005461006e906001600160a01b031681565b6040516001600160a01b03909116815260200160405180910390f35b6100596100d1565b6100596100a036600461017c565b6100f7565b6000546001600160a01b031633146100bc57600080fd5b6000805460ff60a01b1916600160a01b179055565b6000546001600160a01b031633146100e857600080fd5b6000805460ff60a01b19169055565b6000546001600160a01b0316331461010e57600080fd5b6001600160a01b03811661012157600080fd5b600080546040516001600160a01b03808516939216917f8be0079c531659141344cd1fd0a4f28419497f9722a3daafe3b4186f6b6457e091a3600080546001600160a01b0319166001600160a01b0392909216919091179055565b60006020828403121561018e57600080fd5b81356001600160a01b03811681146101a557600080fd5b939250505056fea26469706673582212209ec9e9586736039ea14b0b9a9342f492ecb24c4f9add270ed757966e33fa330364736f6c63430008180033","linkReferences":{}},"methodIdentifiers":{"disable()":"2f2770db","enable()":"a3907d71","owner()":"8da5cb5b","transferOwnership(address)":"f2fde38b"},"id":3}