{"abi":[{"type":"function","name":"disable","inputs":[],"outputs":[],"stateMutability":"nonpayable"},{"type":"function","name":"disabled","inputs":[],"outputs":[{"name":"","type":"bool","internalType":"bool"}],"stateMutability":"view"},{"type":"function","name":"enable","inputs":[],"outputs":[],"stateMutability":"nonpayable"},{"type":"function","name":"owner","inputs":[],"outputs":[{"name":"","type":"address","internalType":"address"}],"stateMutability":"view"},{"type":"function","name":"protectedFunction","inputs":[],"outputs":[],"stateMutability":"nonpayable"},{"type":"function","name":"transferOwnership","inputs":[{"name":"newOwner","type":"address","internalType":"address"}],"outputs":[],"stateMutability":"nonpayable"},{"type":"event","name":"OwnershipTransferred","inputs":[{"name":"previousOwner","type":"address","indexed":true,"internalType":"address"},{"name":"newOwner","type":"address","indexed":true,"internalType":"address"}],"anonymous":false}],"bytecode":{"object":"0x60806040526000805460ff60a01b1916905534801561001d57600080fd5b50600080546001600160a01b0319163317905561027c8061003f6000396000f3fe608060405234801561001057600080fd5b50600436106100625760003560e01c8063021e9894146100675780632f2770db146100715780638da5cb5b14610079578063a3907d71146100a9578063ee070805146100b1578063f2fde38b146100d5575b600080fd5b61006f6100e8565b005b61006f61013f565b60005461008c906001600160a01b031681565b6040516001600160a01b0390911681526020015b60405180910390f35b61006f61016b565b6000546100c590600160a01b900460ff1681565b60405190151581526020016100a0565b61006f6100e3366004610216565b610191565b600054600160a01b900460ff161561013d5760405162461bcd60e51b815260206004820152601460248201527310dbdb9d1c9858dd081a5cc8191a5cd8589b195960621b604482015260640160405180910390fd5b565b6000546001600160a01b0316331461015657600080fd5b6000805460ff60a01b1916600160a01b179055565b6000546001600160a01b0316331461018257600080fd5b6000805460ff60a01b19169055565b6000546001600160a01b031633146101a857600080fd5b6001600160a01b0381166101bb57600080fd5b600080546040516001600160a01b03808516939216917f8be0079c531659141344cd1fd0a4f28419497f9722a3daafe3b4186f6b6457e091a3600080546001600160a01b0319166001600160a01b0392909216919091179055565b60006020828403121561022857600080fd5b81356001600160a01b038116811461023f57600080fd5b939250505056fea26469706673582212205846117a365d679dc2aa7dc7fc8401dffe1f41de43ffb5c8b18ff6da4844c8c264736f6c63430008180033","linkReferences":{}},"methodIdentifiers":{"disable()":"2f2770db","disabled()":"ee070805","enable()":"a3907d71","owner()":"8da5cb5b","protectedFunction()":"021e9894","transferOwnership(address)":"f2fde38b"},"id":0}